{
  "address": "0x3Ed753074c0F987C292569Ee516bC3917e14FcE0",
  "abi": [
    {
      "inputs": [
        {
          "internalType": "contract IERC20",
          "name": "_erc20",
          "type": "address"
        },
        {
          "internalType": "address",
          "name": "_feeAddress",
          "type": "address"
        },
        {
          "internalType": "address",
          "name": "_mainBackend",
          "type": "address"
        }
      ],
      "stateMutability": "nonpayable",
      "type": "constructor"
    },
    {
      "anonymous": false,
      "inputs": [
        {
          "indexed": true,
          "internalType": "address",
          "name": "account",
          "type": "address"
        },
        {
          "indexed": true,
          "internalType": "uint256",
          "name": "amount",
          "type": "uint256"
        },
        {
          "indexed": true,
          "internalType": "uint256",
          "name": "fee",
          "type": "uint256"
        }
      ],
      "name": "Dispense",
      "type": "event"
    },
    {
      "anonymous": false,
      "inputs": [
        {
          "indexed": true,
          "internalType": "address",
          "name": "account",
          "type": "address"
        },
        {
          "indexed": true,
          "internalType": "uint256",
          "name": "amount",
          "type": "uint256"
        },
        {
          "indexed": true,
          "internalType": "string",
          "name": "target",
          "type": "string"
        }
      ],
      "name": "Upload",
      "type": "event"
    },
    {
      "inputs": [
        {
          "internalType": "address[]",
          "name": "_backend",
          "type": "address[]"
        }
      ],
      "name": "addBackend",
      "outputs": [],
      "stateMutability": "nonpayable",
      "type": "function"
    },
    {
      "inputs": [
        {
          "internalType": "address",
          "name": "_feeAddress",
          "type": "address"
        }
      ],
      "name": "changeFeeAddress",
      "outputs": [],
      "stateMutability": "nonpayable",
      "type": "function"
    },
    {
      "inputs": [
        {
          "internalType": "address",
          "name": "_account",
          "type": "address"
        }
      ],
      "name": "checkUserLock",
      "outputs": [
        {
          "components": [
            {
              "internalType": "uint256",
              "name": "amount",
              "type": "uint256"
            },
            {
              "internalType": "string",
              "name": "targetAddr",
              "type": "string"
            }
          ],
          "internalType": "struct BridgeAssist.Lock",
          "name": "userLock",
          "type": "tuple"
        }
      ],
      "stateMutability": "view",
      "type": "function"
    },
    {
      "inputs": [
        {
          "internalType": "address",
          "name": "_account",
          "type": "address"
        }
      ],
      "name": "clearLock",
      "outputs": [],
      "stateMutability": "nonpayable",
      "type": "function"
    },
    {
      "inputs": [
        {
          "internalType": "address",
          "name": "_account",
          "type": "address"
        },
        {
          "internalType": "uint256",
          "name": "_amount",
          "type": "uint256"
        },
        {
          "internalType": "uint256",
          "name": "_fee",
          "type": "uint256"
        }
      ],
      "name": "dispense",
      "outputs": [],
      "stateMutability": "nonpayable",
      "type": "function"
    },
    {
      "inputs": [],
      "name": "erc20",
      "outputs": [
        {
          "internalType": "contract IERC20",
          "name": "",
          "type": "address"
        }
      ],
      "stateMutability": "view",
      "type": "function"
    },
    {
      "inputs": [],
      "name": "feeAddress",
      "outputs": [
        {
          "internalType": "address",
          "name": "",
          "type": "address"
        }
      ],
      "stateMutability": "view",
      "type": "function"
    },
    {
      "inputs": [
        {
          "internalType": "address",
          "name": "",
          "type": "address"
        }
      ],
      "name": "isBackend",
      "outputs": [
        {
          "internalType": "bool",
          "name": "",
          "type": "bool"
        }
      ],
      "stateMutability": "view",
      "type": "function"
    },
    {
      "inputs": [],
      "name": "mainBackend",
      "outputs": [
        {
          "internalType": "address",
          "name": "",
          "type": "address"
        }
      ],
      "stateMutability": "view",
      "type": "function"
    },
    {
      "inputs": [
        {
          "internalType": "address[]",
          "name": "_backend",
          "type": "address[]"
        }
      ],
      "name": "removeBackend",
      "outputs": [],
      "stateMutability": "nonpayable",
      "type": "function"
    },
    {
      "inputs": [
        {
          "internalType": "uint256",
          "name": "_amount",
          "type": "uint256"
        },
        {
          "internalType": "string",
          "name": "_target",
          "type": "string"
        }
      ],
      "name": "upload",
      "outputs": [],
      "stateMutability": "nonpayable",
      "type": "function"
    }
  ],
  "transactionHash": "0xd92d2b3632501a60c875f070851fb502d7b62b7a87575d68e706da9b22304e8b",
  "args": [
    "0xf0eB3c9088718a533C8FD64Dbcaa5927faed6D18",
    "0xD7b6908b84b5AB01164Ab9a58C70524B182028D8",
    "0x0858A75cBE522702ec15889A46BaEA5c91984123"
  ],
  "numDeployments": 1,
  "solcInputHash": "4c190a8e4218f997f749033c446d27c8",
  "bytecode": "0x60806040523480156200001157600080fd5b5060405162001ac838038062001ac8833981810160405281019062000037919062000188565b826000806101000a81548173ffffffffffffffffffffffffffffffffffffffff021916908373ffffffffffffffffffffffffffffffffffffffff16021790555081600260006101000a81548173ffffffffffffffffffffffffffffffffffffffff021916908373ffffffffffffffffffffffffffffffffffffffff16021790555080600160006101000a81548173ffffffffffffffffffffffffffffffffffffffff021916908373ffffffffffffffffffffffffffffffffffffffff1602179055506001600360008373ffffffffffffffffffffffffffffffffffffffff1673ffffffffffffffffffffffffffffffffffffffff16815260200190815260200160002060006101000a81548160ff0219169083151502179055505050506200025a565b6000815190506200016b8162000226565b92915050565b600081519050620001828162000240565b92915050565b6000806000606084860312156200019e57600080fd5b6000620001ae8682870162000171565b9350506020620001c1868287016200015a565b9250506040620001d4868287016200015a565b9150509250925092565b6000620001eb8262000206565b9050919050565b6000620001ff82620001de565b9050919050565b600073ffffffffffffffffffffffffffffffffffffffff82169050919050565b6200023181620001de565b81146200023d57600080fd5b50565b6200024b81620001f2565b81146200025757600080fd5b50565b61185e806200026a6000396000f3fe608060405234801561001057600080fd5b50600436106100a95760003560e01c8063785e9e8611610071578063785e9e86146101505780638dc735211461016e578063a578c2da1461018a578063c52ee785146101ba578063e758f0d5146101d8578063e784f2b4146101f4576100a9565b80630e0111e5146100ae578063285e1406146100ca57806341275358146100e65780634c7f0bdd146101045780634d725e9514610134575b600080fd5b6100c860048036038101906100c3919061100b565b610210565b005b6100e460048036038101906100df9190610f93565b6103b0565b005b6100ee610484565b6040516100fb9190611285565b60405180910390f35b61011e60048036038101906101199190610f93565b6104aa565b60405161012b9190611300565b60405180910390f35b61014e60048036038101906101499190611079565b6104ca565b005b61015861073e565b604051610165919061131b565b60405180910390f35b61018860048036038101906101839190610f93565b610762565b005b6101a4600480360381019061019f9190610f93565b61089f565b6040516101b191906113d6565b60405180910390f35b6101c26109cb565b6040516101cf9190611285565b60405180910390f35b6101f260048036038101906101ed919061100b565b6109f1565b005b61020e60048036038101906102099190610fbc565b610b91565b005b600160009054906101000a900473ffffffffffffffffffffffffffffffffffffffff1673ffffffffffffffffffffffffffffffffffffffff163373ffffffffffffffffffffffffffffffffffffffff16146102a0576040517f08c379a000000000000000000000000000000000000000000000000000000000815260040161029790611336565b60405180910390fd5b60648282905011156102e7576040517f08c379a00000000000000000000000000000000000000000000000000000000081526004016102de90611376565b60405180910390fd5b60005b828290508110156103ab57600060036000858585818110610334577f4e487b7100000000000000000000000000000000000000000000000000000000600052603260045260246000fd5b90506020020160208101906103499190610f93565b73ffffffffffffffffffffffffffffffffffffffff1673ffffffffffffffffffffffffffffffffffffffff16815260200190815260200160002060006101000a81548160ff021916908315150217905550806103a490611597565b90506102ea565b505050565b600160009054906101000a900473ffffffffffffffffffffffffffffffffffffffff1673ffffffffffffffffffffffffffffffffffffffff163373ffffffffffffffffffffffffffffffffffffffff1614610440576040517f08c379a000000000000000000000000000000000000000000000000000000000815260040161043790611336565b60405180910390fd5b80600260006101000a81548173ffffffffffffffffffffffffffffffffffffffff021916908373ffffffffffffffffffffffffffffffffffffffff16021790555050565b600260009054906101000a900473ffffffffffffffffffffffffffffffffffffffff1681565b60036020528060005260406000206000915054906101000a900460ff1681565b6000821161050d576040517f08c379a0000000000000000000000000000000000000000000000000000000008152600401610504906113b6565b60405180910390fd5b6000600460003373ffffffffffffffffffffffffffffffffffffffff1673ffffffffffffffffffffffffffffffffffffffff1681526020019081526020016000206000015414610592576040517f08c379a000000000000000000000000000000000000000000000000000000000815260040161058990611396565b60405180910390fd5b60008054906101000a900473ffffffffffffffffffffffffffffffffffffffff1673ffffffffffffffffffffffffffffffffffffffff166323b872dd3330856040518463ffffffff1660e01b81526004016105ef939291906112a0565b602060405180830381600087803b15801561060957600080fd5b505af115801561061d573d6000803e3d6000fd5b505050506040513d601f19601f820116820180604052508101906106419190611050565b5081600460003373ffffffffffffffffffffffffffffffffffffffff1673ffffffffffffffffffffffffffffffffffffffff1681526020019081526020016000206000018190555080600460003373ffffffffffffffffffffffffffffffffffffffff1673ffffffffffffffffffffffffffffffffffffffff16815260200190815260200160002060010190805190602001906106df929190610de5565b50806040516106ee919061126e565b6040518091039020823373ffffffffffffffffffffffffffffffffffffffff167f60fba7085f9c79138a601dd1af00e09e61ed6d762e7536ab41ac195be82e5f7e60405160405180910390a45050565b60008054906101000a900473ffffffffffffffffffffffffffffffffffffffff1681565b600360003373ffffffffffffffffffffffffffffffffffffffff1673ffffffffffffffffffffffffffffffffffffffff16815260200190815260200160002060009054906101000a900460ff166107ee576040517f08c379a00000000000000000000000000000000000000000000000000000000081526004016107e590611356565b60405180910390fd5b6000600460008373ffffffffffffffffffffffffffffffffffffffff1673ffffffffffffffffffffffffffffffffffffffff1681526020019081526020016000206000018190555060405180602001604052806000815250600460008373ffffffffffffffffffffffffffffffffffffffff1673ffffffffffffffffffffffffffffffffffffffff168152602001908152602001600020600101908051906020019061089b929190610de5565b5050565b6108a7610e6b565b600460008373ffffffffffffffffffffffffffffffffffffffff1673ffffffffffffffffffffffffffffffffffffffff16815260200190815260200160002060000154816000018181525050600460008373ffffffffffffffffffffffffffffffffffffffff1673ffffffffffffffffffffffffffffffffffffffff168152602001908152602001600020600101805461094090611534565b80601f016020809104026020016040519081016040528092919081815260200182805461096c90611534565b80156109b95780601f1061098e576101008083540402835291602001916109b9565b820191906000526020600020905b81548152906001019060200180831161099c57829003601f168201915b50505050508160200181905250919050565b600160009054906101000a900473ffffffffffffffffffffffffffffffffffffffff1681565b600160009054906101000a900473ffffffffffffffffffffffffffffffffffffffff1673ffffffffffffffffffffffffffffffffffffffff163373ffffffffffffffffffffffffffffffffffffffff1614610a81576040517f08c379a0000000000000000000000000000000000000000000000000000000008152600401610a7890611336565b60405180910390fd5b6064828290501115610ac8576040517f08c379a0000000000000000000000000000000000000000000000000000000008152600401610abf90611376565b60405180910390fd5b60005b82829050811015610b8c57600160036000858585818110610b15577f4e487b7100000000000000000000000000000000000000000000000000000000600052603260045260246000fd5b9050602002016020810190610b2a9190610f93565b73ffffffffffffffffffffffffffffffffffffffff1673ffffffffffffffffffffffffffffffffffffffff16815260200190815260200160002060006101000a81548160ff02191690831515021790555080610b8590611597565b9050610acb565b505050565b600360003373ffffffffffffffffffffffffffffffffffffffff1673ffffffffffffffffffffffffffffffffffffffff16815260200190815260200160002060009054906101000a900460ff16610c1d576040517f08c379a0000000000000000000000000000000000000000000000000000000008152600401610c1490611356565b60405180910390fd5b60008054906101000a900473ffffffffffffffffffffffffffffffffffffffff1673ffffffffffffffffffffffffffffffffffffffff1663a9059cbb84846040518363ffffffff1660e01b8152600401610c789291906112d7565b602060405180830381600087803b158015610c9257600080fd5b505af1158015610ca6573d6000803e3d6000fd5b505050506040513d601f19601f82011682018060405250810190610cca9190611050565b5060008054906101000a900473ffffffffffffffffffffffffffffffffffffffff1673ffffffffffffffffffffffffffffffffffffffff1663a9059cbb600260009054906101000a900473ffffffffffffffffffffffffffffffffffffffff16836040518363ffffffff1660e01b8152600401610d489291906112d7565b602060405180830381600087803b158015610d6257600080fd5b505af1158015610d76573d6000803e3d6000fd5b505050506040513d601f19601f82011682018060405250810190610d9a9190611050565b5080828473ffffffffffffffffffffffffffffffffffffffff167f55099c65b144b9c49b9540c62984f0a55edc757fda3032431f3c8bba6a44efc460405160405180910390a4505050565b828054610df190611534565b90600052602060002090601f016020900481019282610e135760008555610e5a565b82601f10610e2c57805160ff1916838001178555610e5a565b82800160010185558215610e5a579182015b82811115610e59578251825591602001919060010190610e3e565b5b509050610e679190610e85565b5090565b604051806040016040528060008152602001606081525090565b5b80821115610e9e576000816000905550600101610e86565b5090565b6000610eb5610eb08461141d565b6113f8565b905082815260208101848484011115610ecd57600080fd5b610ed88482856114f2565b509392505050565b600081359050610eef816117e3565b92915050565b60008083601f840112610f0757600080fd5b8235905067ffffffffffffffff811115610f2057600080fd5b602083019150836020820283011115610f3857600080fd5b9250929050565b600081519050610f4e816117fa565b92915050565b600082601f830112610f6557600080fd5b8135610f75848260208601610ea2565b91505092915050565b600081359050610f8d81611811565b92915050565b600060208284031215610fa557600080fd5b6000610fb384828501610ee0565b91505092915050565b600080600060608486031215610fd157600080fd5b6000610fdf86828701610ee0565b9350506020610ff086828701610f7e565b925050604061100186828701610f7e565b9150509250925092565b6000806020838503121561101e57600080fd5b600083013567ffffffffffffffff81111561103857600080fd5b61104485828601610ef5565b92509250509250929050565b60006020828403121561106257600080fd5b600061107084828501610f3f565b91505092915050565b6000806040838503121561108c57600080fd5b600061109a85828601610f7e565b925050602083013567ffffffffffffffff8111156110b757600080fd5b6110c385828601610f54565b9150509250929050565b6110d681611486565b82525050565b6110e581611498565b82525050565b6110f4816114ce565b82525050565b60006111058261144e565b61110f8185611459565b935061111f818560208601611501565b6111288161166d565b840191505092915050565b600061113e8261144e565b611148818561147b565b9350611158818560208601611501565b80840191505092915050565b6000611171602f8361146a565b915061117c8261167e565b604082019050919050565b600061119460268361146a565b915061119f826116cd565b604082019050919050565b60006111b7602e8361146a565b91506111c28261171c565b604082019050919050565b60006111da60238361146a565b91506111e58261176b565b604082019050919050565b60006111fd601c8361146a565b9150611208826117ba565b602082019050919050565b600060408301600083015161122b6000860182611250565b506020830151848203602086015261124382826110fa565b9150508091505092915050565b611259816114c4565b82525050565b611268816114c4565b82525050565b600061127a8284611133565b915081905092915050565b600060208201905061129a60008301846110cd565b92915050565b60006060820190506112b560008301866110cd565b6112c260208301856110cd565b6112cf604083018461125f565b949350505050565b60006040820190506112ec60008301856110cd565b6112f9602083018461125f565b9392505050565b600060208201905061131560008301846110dc565b92915050565b600060208201905061133060008301846110eb565b92915050565b6000602082019050818103600083015261134f81611164565b9050919050565b6000602082019050818103600083015261136f81611187565b9050919050565b6000602082019050818103600083015261138f816111aa565b9050919050565b600060208201905081810360008301526113af816111cd565b9050919050565b600060208201905081810360008301526113cf816111f0565b9050919050565b600060208201905081810360008301526113f08184611213565b905092915050565b6000611402611413565b905061140e8282611566565b919050565b6000604051905090565b600067ffffffffffffffff8211156114385761143761163e565b5b6114418261166d565b9050602081019050919050565b600081519050919050565b600082825260208201905092915050565b600082825260208201905092915050565b600081905092915050565b6000611491826114a4565b9050919050565b60008115159050919050565b600073ffffffffffffffffffffffffffffffffffffffff82169050919050565b6000819050919050565b60006114d9826114e0565b9050919050565b60006114eb826114a4565b9050919050565b82818337600083830152505050565b60005b8381101561151f578082015181840152602081019050611504565b8381111561152e576000848401525b50505050565b6000600282049050600182168061154c57607f821691505b602082108114156115605761155f61160f565b5b50919050565b61156f8261166d565b810181811067ffffffffffffffff8211171561158e5761158d61163e565b5b80604052505050565b60006115a2826114c4565b91507fffffffffffffffffffffffffffffffffffffffffffffffffffffffffffffffff8214156115d5576115d46115e0565b5b600182019050919050565b7f4e487b7100000000000000000000000000000000000000000000000000000000600052601160045260246000fd5b7f4e487b7100000000000000000000000000000000000000000000000000000000600052602260045260246000fd5b7f4e487b7100000000000000000000000000000000000000000000000000000000600052604160045260246000fd5b6000601f19601f8301169050919050565b7f546869732066756e6374696f6e206973207265737472696374656420746f207460008201527f6865206d61696e206261636b656e640000000000000000000000000000000000602082015250565b7f546869732066756e6374696f6e206973207265737472696374656420746f206260008201527f61636b656e640000000000000000000000000000000000000000000000000000602082015250565b7f41727261792073697a652073686f756c64206265206c657373207468616e206f60008201527f7220657175616c20746f20313030000000000000000000000000000000000000602082015250565b7f596f75722063757272656e74206c6f636b206973206e6f7420657175616c207460008201527f6f20300000000000000000000000000000000000000000000000000000000000602082015250565b7f416d6f756e742073686f756c64206265206d6f7265207468616e203000000000600082015250565b6117ec81611486565b81146117f757600080fd5b50565b61180381611498565b811461180e57600080fd5b50565b61181a816114c4565b811461182557600080fd5b5056fea2646970667358221220778ac2d5697e5f34207156e8dad2dcdab35d71054508d5ca28a3842da4f86c2164736f6c63430008010033",
  "devdoc": {
    "kind": "dev",
    "methods": {
      "addBackend(address[])": {
        "params": {
          "_backend": "Backend ETH/BSC wallet addresses"
        }
      },
      "changeFeeAddress(address)": {
        "params": {
          "_feeAddress": "ETH/BSC fee wallet address"
        }
      },
      "checkUserLock(address)": {
        "details": "This function is used for the verfication of uploading tokens",
        "params": {
          "_account": "BSC wallet address"
        },
        "returns": {
          "userLock": "Lock structure for the user"
        }
      },
      "clearLock(address)": {
        "params": {
          "_account": "ETH/BSC wallet address"
        }
      },
      "constructor": {
        "params": {
          "_erc20": "ERC-20/BEP-20 token",
          "_feeAddress": "ETH/BSC fee wallet address",
          "_mainBackend": "Main backend ETH/BSC wallet address"
        }
      },
      "dispense(address,uint256,uint256)": {
        "params": {
          "_account": "ETH/BSC wallet address",
          "_amount": "Number of tokens to dispense",
          "_fee": "Fee amount"
        }
      },
      "removeBackend(address[])": {
        "params": {
          "_backend": "Backend ETH/BSC wallet addresses"
        }
      },
      "upload(uint256,string)": {
        "details": "Creating lock structure and transferring the number of tokens to the bridge address",
        "params": {
          "_amount": "Number of tokens to swap",
          "_target": "Solana wallet address"
        }
      }
    },
    "version": 1
  },
  "userdoc": {
    "kind": "user",
    "methods": {
      "addBackend(address[])": {
        "notice": "Adding new backend addresses"
      },
      "changeFeeAddress(address)": {
        "notice": "Changing fee address"
      },
      "checkUserLock(address)": {
        "notice": "Viewing the lock structure for the user"
      },
      "clearLock(address)": {
        "notice": "Backend function to clear user lock in the swap token process"
      },
      "dispense(address,uint256,uint256)": {
        "notice": "Dispensing tokens from the bridge by the backend to swap in the direction of Solana->ETH/BSC"
      },
      "removeBackend(address[])": {
        "notice": "Removing backend addresses"
      },
      "upload(uint256,string)": {
        "notice": "Locking tokens on the bridge to swap in the direction of ETH/BSC->Solana"
      }
    },
    "version": 1
  },
  "storageLayout": {
    "storage": [
      {
        "astId": 83,
        "contract": "contracts/BridgeAssist.sol:BridgeAssist",
        "label": "erc20",
        "offset": 0,
        "slot": "0",
        "type": "t_contract(IERC20)77"
      },
      {
        "astId": 90,
        "contract": "contracts/BridgeAssist.sol:BridgeAssist",
        "label": "mainBackend",
        "offset": 0,
        "slot": "1",
        "type": "t_address"
      },
      {
        "astId": 92,
        "contract": "contracts/BridgeAssist.sol:BridgeAssist",
        "label": "feeAddress",
        "offset": 0,
        "slot": "2",
        "type": "t_address"
      },
      {
        "astId": 96,
        "contract": "contracts/BridgeAssist.sol:BridgeAssist",
        "label": "isBackend",
        "offset": 0,
        "slot": "3",
        "type": "t_mapping(t_address,t_bool)"
      },
      {
        "astId": 101,
        "contract": "contracts/BridgeAssist.sol:BridgeAssist",
        "label": "locks",
        "offset": 0,
        "slot": "4",
        "type": "t_mapping(t_address,t_struct(Lock)88_storage)"
      }
    ],
    "types": {
      "t_address": {
        "encoding": "inplace",
        "label": "address",
        "numberOfBytes": "20"
      },
      "t_bool": {
        "encoding": "inplace",
        "label": "bool",
        "numberOfBytes": "1"
      },
      "t_contract(IERC20)77": {
        "encoding": "inplace",
        "label": "contract IERC20",
        "numberOfBytes": "20"
      },
      "t_mapping(t_address,t_bool)": {
        "encoding": "mapping",
        "key": "t_address",
        "label": "mapping(address => bool)",
        "numberOfBytes": "32",
        "value": "t_bool"
      },
      "t_mapping(t_address,t_struct(Lock)88_storage)": {
        "encoding": "mapping",
        "key": "t_address",
        "label": "mapping(address => struct BridgeAssist.Lock)",
        "numberOfBytes": "32",
        "value": "t_struct(Lock)88_storage"
      },
      "t_string_storage": {
        "encoding": "bytes",
        "label": "string",
        "numberOfBytes": "32"
      },
      "t_struct(Lock)88_storage": {
        "encoding": "inplace",
        "label": "struct BridgeAssist.Lock",
        "members": [
          {
            "astId": 85,
            "contract": "contracts/BridgeAssist.sol:BridgeAssist",
            "label": "amount",
            "offset": 0,
            "slot": "0",
            "type": "t_uint256"
          },
          {
            "astId": 87,
            "contract": "contracts/BridgeAssist.sol:BridgeAssist",
            "label": "targetAddr",
            "offset": 0,
            "slot": "1",
            "type": "t_string_storage"
          }
        ],
        "numberOfBytes": "64"
      },
      "t_uint256": {
        "encoding": "inplace",
        "label": "uint256",
        "numberOfBytes": "32"
      }
    }
  }
}